{
  "_format": "hh-sol-artifact-1",
  "contractName": "SmartDeposit",
  "sourceName": "contracts/SmartDeposit.sol",
  "abi": [
    {
      "inputs": [],
      "stateMutability": "nonpayable",
      "type": "constructor"
    },
    {
      "inputs": [
        {
          "internalType": "address",
          "name": "owner",
          "type": "address"
        }
      ],
      "name": "OwnableInvalidOwner",
      "type": "error"
    },
    {
      "inputs": [
        {
          "internalType": "address",
          "name": "account",
          "type": "address"
        }
      ],
      "name": "OwnableUnauthorizedAccount",
      "type": "error"
    },
    {
      "anonymous": false,
      "inputs": [
        {
          "indexed": true,
          "internalType": "uint256",
          "name": "depositId",
          "type": "uint256"
        },
        {
          "indexed": true,
          "internalType": "uint256",
          "name": "propertyId",
          "type": "uint256"
        },
        {
          "indexed": true,
          "internalType": "address",
          "name": "tenant",
          "type": "address"
        },
        {
          "indexed": false,
          "internalType": "uint256",
          "name": "amount",
          "type": "uint256"
        }
      ],
      "name": "DepositMade",
      "type": "event"
    },
    {
      "anonymous": false,
      "inputs": [
        {
          "indexed": true,
          "internalType": "uint256",
          "name": "depositId",
          "type": "uint256"
        },
        {
          "indexed": false,
          "internalType": "enum SmartDeposit.DepositStatus",
          "name": "status",
          "type": "uint8"
        }
      ],
      "name": "DepositStatusChanged",
      "type": "event"
    },
    {
      "anonymous": false,
      "inputs": [
        {
          "indexed": true,
          "internalType": "uint256",
          "name": "depositId",
          "type": "uint256"
        },
        {
          "indexed": true,
          "internalType": "address",
          "name": "initiator",
          "type": "address"
        }
      ],
      "name": "DisputeRaised",
      "type": "event"
    },
    {
      "anonymous": false,
      "inputs": [
        {
          "indexed": true,
          "internalType": "uint256",
          "name": "depositId",
          "type": "uint256"
        },
        {
          "indexed": false,
          "internalType": "enum SmartDeposit.DepositStatus",
          "name": "status",
          "type": "uint8"
        },
        {
          "indexed": false,
          "internalType": "uint256",
          "name": "refundedAmount",
          "type": "uint256"
        }
      ],
      "name": "DisputeResolved",
      "type": "event"
    },
    {
      "anonymous": false,
      "inputs": [
        {
          "indexed": true,
          "internalType": "uint256",
          "name": "propertyId",
          "type": "uint256"
        },
        {
          "indexed": true,
          "internalType": "enum SmartDeposit.FileType",
          "name": "fileType",
          "type": "uint8"
        },
        {
          "indexed": false,
          "internalType": "string",
          "name": "cid",
          "type": "string"
        },
        {
          "indexed": true,
          "internalType": "address",
          "name": "uploader",
          "type": "address"
        }
      ],
      "name": "FileAdded",
      "type": "event"
    },
    {
      "anonymous": false,
      "inputs": [
        {
          "indexed": true,
          "internalType": "address",
          "name": "previousOwner",
          "type": "address"
        },
        {
          "indexed": true,
          "internalType": "address",
          "name": "newOwner",
          "type": "address"
        }
      ],
      "name": "OwnershipTransferred",
      "type": "event"
    },
    {
      "anonymous": false,
      "inputs": [
        {
          "indexed": true,
          "internalType": "uint256",
          "name": "propertyId",
          "type": "uint256"
        },
        {
          "indexed": true,
          "internalType": "address",
          "name": "landlord",
          "type": "address"
        },
        {
          "indexed": false,
          "internalType": "string",
          "name": "name",
          "type": "string"
        },
        {
          "indexed": false,
          "internalType": "uint256",
          "name": "depositAmount",
          "type": "uint256"
        },
        {
          "indexed": false,
          "internalType": "enum SmartDeposit.PropertyStatus",
          "name": "status",
          "type": "uint8"
        }
      ],
      "name": "PropertyCreated",
      "type": "event"
    },
    {
      "anonymous": false,
      "inputs": [
        {
          "indexed": true,
          "internalType": "uint256",
          "name": "propertyId",
          "type": "uint256"
        },
        {
          "indexed": false,
          "internalType": "enum SmartDeposit.PropertyStatus",
          "name": "status",
          "type": "uint8"
        }
      ],
      "name": "PropertyStatusChanged",
      "type": "event"
    },
    {
      "inputs": [
        {
          "internalType": "uint256",
          "name": "_propertyId",
          "type": "uint256"
        },
        {
          "internalType": "string",
          "name": "_cid",
          "type": "string"
        },
        {
          "internalType": "enum SmartDeposit.FileType",
          "name": "_fileType",
          "type": "uint8"
        },
        {
          "internalType": "string",
          "name": "_fileName",
          "type": "string"
        }
      ],
      "name": "addFile",
      "outputs": [],
      "stateMutability": "nonpayable",
      "type": "function"
    },
    {
      "inputs": [
        {
          "internalType": "string",
          "name": "_name",
          "type": "string"
        },
        {
          "internalType": "string",
          "name": "_location",
          "type": "string"
        },
        {
          "internalType": "uint256",
          "name": "_depositAmount",
          "type": "uint256"
        }
      ],
      "name": "createProperty",
      "outputs": [
        {
          "internalType": "uint256",
          "name": "",
          "type": "uint256"
        }
      ],
      "stateMutability": "nonpayable",
      "type": "function"
    },
    {
      "inputs": [
        {
          "internalType": "uint256",
          "name": "_propertyId",
          "type": "uint256"
        }
      ],
      "name": "deleteProperty",
      "outputs": [],
      "stateMutability": "nonpayable",
      "type": "function"
    },
    {
      "inputs": [],
      "name": "depositCounter",
      "outputs": [
        {
          "internalType": "uint256",
          "name": "",
          "type": "uint256"
        }
      ],
      "stateMutability": "view",
      "type": "function"
    },
    {
      "inputs": [
        {
          "internalType": "uint256",
          "name": "_depositId",
          "type": "uint256"
        }
      ],
      "name": "getDepositDetails",
      "outputs": [
        {
          "internalType": "uint256",
          "name": "id",
          "type": "uint256"
        },
        {
          "internalType": "uint256",
          "name": "propertyId",
          "type": "uint256"
        },
        {
          "internalType": "address",
          "name": "tenant",
          "type": "address"
        },
        {
          "internalType": "uint256",
          "name": "amount",
          "type": "uint256"
        },
        {
          "internalType": "uint256",
          "name": "finalAmount",
          "type": "uint256"
        },
        {
          "internalType": "uint256",
          "name": "timestamp",
          "type": "uint256"
        },
        {
          "internalType": "enum SmartDeposit.DepositStatus",
          "name": "status",
          "type": "uint8"
        }
      ],
      "stateMutability": "view",
      "type": "function"
    },
    {
      "inputs": [
        {
          "internalType": "uint256",
          "name": "_propertyId",
          "type": "uint256"
        }
      ],
      "name": "getDepositIdFromProperty",
      "outputs": [
        {
          "internalType": "uint256",
          "name": "",
          "type": "uint256"
        }
      ],
      "stateMutability": "view",
      "type": "function"
    },
    {
      "inputs": [
        {
          "internalType": "address",
          "name": "_landlord",
          "type": "address"
        }
      ],
      "name": "getLandlordProperties",
      "outputs": [
        {
          "internalType": "uint256[]",
          "name": "",
          "type": "uint256[]"
        }
      ],
      "stateMutability": "view",
      "type": "function"
    },
    {
      "inputs": [
        {
          "internalType": "uint256",
          "name": "_propertyId",
          "type": "uint256"
        }
      ],
      "name": "getPropertyDetails",
      "outputs": [
        {
          "internalType": "uint256",
          "name": "id",
          "type": "uint256"
        },
        {
          "internalType": "address",
          "name": "landlord",
          "type": "address"
        },
        {
          "internalType": "string",
          "name": "name",
          "type": "string"
        },
        {
          "internalType": "string",
          "name": "location",
          "type": "string"
        },
        {
          "internalType": "uint256",
          "name": "depositAmount",
          "type": "uint256"
        },
        {
          "internalType": "enum SmartDeposit.PropertyStatus",
          "name": "status",
          "type": "uint8"
        }
      ],
      "stateMutability": "view",
      "type": "function"
    },
    {
      "inputs": [
        {
          "internalType": "uint256",
          "name": "_propertyId",
          "type": "uint256"
        }
      ],
      "name": "getPropertyFiles",
      "outputs": [
        {
          "components": [
            {
              "internalType": "string",
              "name": "cid",
              "type": "string"
            },
            {
              "internalType": "uint256",
              "name": "uploadTimestamp",
              "type": "uint256"
            },
            {
              "internalType": "enum SmartDeposit.FileType",
              "name": "fileType",
              "type": "uint8"
            },
            {
              "internalType": "address",
              "name": "uploader",
              "type": "address"
            },
            {
              "internalType": "string",
              "name": "fileName",
              "type": "string"
            }
          ],
          "internalType": "struct SmartDeposit.FileReference[]",
          "name": "",
          "type": "tuple[]"
        }
      ],
      "stateMutability": "view",
      "type": "function"
    },
    {
      "inputs": [
        {
          "internalType": "uint256",
          "name": "_depositId",
          "type": "uint256"
        }
      ],
      "name": "getPropertyIdFromDeposit",
      "outputs": [
        {
          "internalType": "uint256",
          "name": "",
          "type": "uint256"
        }
      ],
      "stateMutability": "view",
      "type": "function"
    },
    {
      "inputs": [
        {
          "internalType": "address",
          "name": "_tenant",
          "type": "address"
        }
      ],
      "name": "getTenantDeposits",
      "outputs": [
        {
          "internalType": "uint256[]",
          "name": "",
          "type": "uint256[]"
        }
      ],
      "stateMutability": "view",
      "type": "function"
    },
    {
      "inputs": [
        {
          "internalType": "uint256",
          "name": "_depositId",
          "type": "uint256"
        }
      ],
      "name": "initiateDispute",
      "outputs": [],
      "stateMutability": "nonpayable",
      "type": "function"
    },
    {
      "inputs": [
        {
          "internalType": "uint256",
          "name": "_propertyId",
          "type": "uint256"
        }
      ],
      "name": "makeDeposit",
      "outputs": [
        {
          "internalType": "uint256",
          "name": "",
          "type": "uint256"
        }
      ],
      "stateMutability": "payable",
      "type": "function"
    },
    {
      "inputs": [],
      "name": "owner",
      "outputs": [
        {
          "internalType": "address",
          "name": "",
          "type": "address"
        }
      ],
      "stateMutability": "view",
      "type": "function"
    },
    {
      "inputs": [],
      "name": "propertyCounter",
      "outputs": [
        {
          "internalType": "uint256",
          "name": "",
          "type": "uint256"
        }
      ],
      "stateMutability": "view",
      "type": "function"
    },
    {
      "inputs": [
        {
          "internalType": "uint256",
          "name": "_depositId",
          "type": "uint256"
        }
      ],
      "name": "refundDeposit",
      "outputs": [],
      "stateMutability": "nonpayable",
      "type": "function"
    },
    {
      "inputs": [],
      "name": "renounceOwnership",
      "outputs": [],
      "stateMutability": "nonpayable",
      "type": "function"
    },
    {
      "inputs": [
        {
          "internalType": "uint256",
          "name": "_depositId",
          "type": "uint256"
        },
        {
          "internalType": "uint256",
          "name": "_refundedAmount",
          "type": "uint256"
        }
      ],
      "name": "resolveDispute",
      "outputs": [],
      "stateMutability": "nonpayable",
      "type": "function"
    },
    {
      "inputs": [
        {
          "internalType": "address",
          "name": "newOwner",
          "type": "address"
        }
      ],
      "name": "transferOwnership",
      "outputs": [],
      "stateMutability": "nonpayable",
      "type": "function"
    }
  ],
  "bytecode": "0x608060405234801561001057600080fd5b5033600073ffffffffffffffffffffffffffffffffffffffff168173ffffffffffffffffffffffffffffffffffffffff16036100845760006040517f1e4fbdf700000000000000000000000000000000000000000000000000000000815260040161007b919061019e565b60405180910390fd5b6100938161009960201b60201c565b506101b9565b60008060009054906101000a900473ffffffffffffffffffffffffffffffffffffffff169050816000806101000a81548173ffffffffffffffffffffffffffffffffffffffff021916908373ffffffffffffffffffffffffffffffffffffffff1602179055508173ffffffffffffffffffffffffffffffffffffffff168173ffffffffffffffffffffffffffffffffffffffff167f8be0079c531659141344cd1fd0a4f28419497f9722a3daafe3b4186f6b6457e060405160405180910390a35050565b600073ffffffffffffffffffffffffffffffffffffffff82169050919050565b60006101888261015d565b9050919050565b6101988161017d565b82525050565b60006020820190506101b3600083018461018f565b92915050565b613ad9806101c86000396000f3fe6080604052600436106101145760003560e01c80638da5cb5b116100a0578063d090e47e11610064578063d090e47e146103d1578063e6741378146103fc578063ecb3dc8814610439578063f2fde38b14610464578063f5fcedd11461048d57610114565b80638da5cb5b146102da578063b574a06814610305578063bc92c6e014610342578063bdc84ac31461036b578063cf0b576d1461039457610114565b80636de0de7e116100e75780636de0de7e146101f1578063715018a61461021a57806371635c0314610231578063781d65cc1461025a578063890db72f1461029757610114565b8063059a500c14610119578063126dbe4314610149578063170140f11461018b57806324e9b512146101b4575b600080fd5b610133600480360381019061012e919061288c565b6104ca565b60405161014091906128c8565b60405180910390f35b34801561015557600080fd5b50610170600480360381019061016b919061288c565b610811565b60405161018296959493929190612a2b565b60405180910390f35b34801561019757600080fd5b506101b260048036038101906101ad919061288c565b610a02565b005b3480156101c057600080fd5b506101db60048036038101906101d69190612bcf565b610dce565b6040516101e891906128c8565b60405180910390f35b3480156101fd57600080fd5b506102186004803603810190610213919061288c565b610fe8565b005b34801561022657600080fd5b5061022f611327565b005b34801561023d57600080fd5b506102586004803603810190610253919061288c565b61133b565b005b34801561026657600080fd5b50610281600480360381019061027c9190612c86565b61168c565b60405161028e9190612d71565b60405180910390f35b3480156102a357600080fd5b506102be60048036038101906102b9919061288c565b611723565b6040516102d19796959493929190612ddb565b60405180910390f35b3480156102e657600080fd5b506102ef611809565b6040516102fc9190612e4a565b60405180910390f35b34801561031157600080fd5b5061032c60048036038101906103279190612c86565b611832565b6040516103399190612d71565b60405180910390f35b34801561034e57600080fd5b5061036960048036038101906103649190612e8a565b6118c9565b005b34801561037757600080fd5b50610392600480360381019061038d9190612f29565b611ba6565b005b3480156103a057600080fd5b506103bb60048036038101906103b6919061288c565b612176565b6040516103c891906128c8565b60405180910390f35b3480156103dd57600080fd5b506103e6612196565b6040516103f391906128c8565b60405180910390f35b34801561040857600080fd5b50610423600480360381019061041e919061288c565b61219c565b60405161043091906128c8565b60405180910390f35b34801561044557600080fd5b5061044e6121bc565b60405161045b91906128c8565b60405180910390f35b34801561047057600080fd5b5061048b60048036038101906104869190612c86565b6121c2565b005b34801561049957600080fd5b506104b460048036038101906104af919061288c565b612248565b6040516104c19190613149565b60405180910390f35b60008180600360008381526020019081526020016000206000015414610525576040517f08c379a000000000000000000000000000000000000000000000000000000000815260040161051c906131b7565b60405180910390fd5b600060036000858152602001908152602001600020905080600501543414610582576040517f08c379a000000000000000000000000000000000000000000000000000000000815260040161057990613223565b60405180910390fd5b6002600081548092919061059590613272565b9190505550600060025490506040518060e001604052808281526020018681526020013373ffffffffffffffffffffffffffffffffffffffff16815260200134815260200160008152602001428152602001600160058111156105fb576105fa6129b4565b5b81525060046000838152602001908152602001600020600082015181600001556020820151816001015560408201518160020160006101000a81548173ffffffffffffffffffffffffffffffffffffffff021916908373ffffffffffffffffffffffffffffffffffffffff160217905550606082015181600301556080820151816004015560a0820151816005015560c08201518160060160006101000a81548160ff021916908360058111156106b5576106b46129b4565b5b0217905550905050806003600087815260200190815260200160002060010181905550600660003373ffffffffffffffffffffffffffffffffffffffff1673ffffffffffffffffffffffffffffffffffffffff1681526020019081526020016000208190806001815401808255809150506001900390600052602060002001600090919091909150553373ffffffffffffffffffffffffffffffffffffffff1685827fc041a123e1460fe622a32c945fe923e9953e8df9a7ec7b1e3fe66f9f3cc99b6d3460405161078691906128c8565b60405180910390a4847fc9ad6f316a0c29919c9b20c406f1baca1b93c196df6515c9e236a803e8a50c1360016040516107bf91906132ba565b60405180910390a260016003600087815260200190815260200160002060060160006101000a81548160ff02191690836002811115610801576108006129b4565b5b0217905550809350505050919050565b6000806060806000808680600360008381526020019081526020016000206000015414610873576040517f08c379a000000000000000000000000000000000000000000000000000000000815260040161086a906131b7565b60405180910390fd5b6000600360008a8152602001908152602001600020905080600001548160020160009054906101000a900473ffffffffffffffffffffffffffffffffffffffff16826003018360040184600501548560060160009054906101000a900460ff168380546108df90613304565b80601f016020809104026020016040519081016040528092919081815260200182805461090b90613304565b80156109585780601f1061092d57610100808354040283529160200191610958565b820191906000526020600020905b81548152906001019060200180831161093b57829003601f168201915b5050505050935082805461096b90613304565b80601f016020809104026020016040519081016040528092919081815260200182805461099790613304565b80156109e45780601f106109b9576101008083540402835291602001916109e4565b820191906000526020600020905b8154815290600101906020018083116109c757829003601f168201915b50505050509250975097509750975097509750505091939550919395565b8080600360008381526020019081526020016000206000015414610a5b576040517f08c379a0000000000000000000000000000000000000000000000000000000008152600401610a52906131b7565b60405180910390fd5b813373ffffffffffffffffffffffffffffffffffffffff166003600083815260200190815260200160002060020160009054906101000a900473ffffffffffffffffffffffffffffffffffffffff1673ffffffffffffffffffffffffffffffffffffffff1614610b00576040517f08c379a0000000000000000000000000000000000000000000000000000000008152600401610af790613381565b60405180910390fd5b600060036000858152602001908152602001600020905060006002811115610b2b57610b2a6129b4565b5b8160060160009054906101000a900460ff166002811115610b4f57610b4e6129b4565b5b14610b8f576040517f08c379a0000000000000000000000000000000000000000000000000000000008152600401610b86906133ed565b60405180910390fd5b600280811115610ba257610ba16129b4565b5b8160060160009054906101000a900460ff166002811115610bc657610bc56129b4565b5b03610c06576040517f08c379a0000000000000000000000000000000000000000000000000000000008152600401610bfd90613459565b60405180910390fd5b6000600560003373ffffffffffffffffffffffffffffffffffffffff1673ffffffffffffffffffffffffffffffffffffffff168152602001908152602001600020905060005b8180549050811015610d045785828281548110610c6c57610c6b613479565b5b906000526020600020015403610cf7578160018380549050610c8e91906134a8565b81548110610c9f57610c9e613479565b5b9060005260206000200154828281548110610cbd57610cbc613479565b5b906000526020600020018190555081805480610cdc57610cdb6134dc565b5b60019003818190600052602060002001600090559055610d04565b8080600101915050610c4c565b506003600086815260200190815260200160002060008082016000905560018201600090556002820160006101000a81549073ffffffffffffffffffffffffffffffffffffffff0219169055600382016000610d60919061278e565b600482016000610d70919061278e565b60058201600090556006820160006101000a81549060ff02191690555050847fc9ad6f316a0c29919c9b20c406f1baca1b93c196df6515c9e236a803e8a50c136000604051610dbf91906132ba565b60405180910390a25050505050565b600060016000815480929190610de390613272565b9190505550600060015490506040518060e00160405280828152602001600081526020013373ffffffffffffffffffffffffffffffffffffffff16815260200186815260200185815260200184815260200160006002811115610e4957610e486129b4565b5b81525060036000838152602001908152602001600020600082015181600001556020820151816001015560408201518160020160006101000a81548173ffffffffffffffffffffffffffffffffffffffff021916908373ffffffffffffffffffffffffffffffffffffffff1602179055506060820151816003019081610ecf91906136b7565b506080820151816004019081610ee591906136b7565b5060a0820151816005015560c08201518160060160006101000a81548160ff02191690836002811115610f1b57610f1a6129b4565b5b0217905550905050600560003373ffffffffffffffffffffffffffffffffffffffff1673ffffffffffffffffffffffffffffffffffffffff1681526020019081526020016000208190806001815401808255809150506001900390600052602060002001600090919091909150553373ffffffffffffffffffffffffffffffffffffffff16817fb9bef06665fbb65e04868f83a5a9579097ff59fa17c14f0084b27f13f9e5349787866000604051610fd593929190613789565b60405180910390a3809150509392505050565b8080600460008381526020019081526020016000206000015414611041576040517f08c379a000000000000000000000000000000000000000000000000000000000815260040161103890613813565b60405180910390fd5b60046000838152602001908152602001600020600101543373ffffffffffffffffffffffffffffffffffffffff166003600083815260200190815260200160002060020160009054906101000a900473ffffffffffffffffffffffffffffffffffffffff1673ffffffffffffffffffffffffffffffffffffffff16146110fc576040517f08c379a00000000000000000000000000000000000000000000000000000000081526004016110f390613381565b60405180910390fd5b600060046000858152602001908152602001600020905060016005811115611127576111266129b4565b5b8160060160009054906101000a900460ff16600581111561114b5761114a6129b4565b5b1461118b576040517f08c379a00000000000000000000000000000000000000000000000000000000081526004016111829061387f565b60405180910390fd5b60058160060160006101000a81548160ff021916908360058111156111b3576111b26129b4565b5b02179055508060030154816004018190555060006003600060046000888152602001908152602001600020600101548152602001908152602001600020905060008160060160006101000a81548160ff0219169083600281111561121a576112196129b4565b5b02179055508160020160009054906101000a900473ffffffffffffffffffffffffffffffffffffffff1673ffffffffffffffffffffffffffffffffffffffff166108fc83600301549081150290604051600060405180830381858888f1935050505015801561128d573d6000803e3d6000fd5b50847fdb118fd0b055eccbef25f18ed59dd3948e1c76d7875a4a77e4327a8fa2dc9a418360060160009054906101000a900460ff166040516112cf919061389f565b60405180910390a2847fc9ad6f316a0c29919c9b20c406f1baca1b93c196df6515c9e236a803e8a50c138260060160009054906101000a900460ff1660405161131891906132ba565b60405180910390a25050505050565b61132f61263b565b61133960006126c2565b565b8080600460008381526020019081526020016000206000015414611394576040517f08c379a000000000000000000000000000000000000000000000000000000000815260040161138b90613813565b60405180910390fd5b60046000838152602001908152602001600020600101543373ffffffffffffffffffffffffffffffffffffffff166003600083815260200190815260200160002060020160009054906101000a900473ffffffffffffffffffffffffffffffffffffffff1673ffffffffffffffffffffffffffffffffffffffff161461144f576040517f08c379a000000000000000000000000000000000000000000000000000000000815260040161144690613381565b60405180910390fd5b60006004600085815260200190815260200160002090506001600581111561147a576114796129b4565b5b8160060160009054906101000a900460ff16600581111561149e5761149d6129b4565b5b146114de576040517f08c379a00000000000000000000000000000000000000000000000000000000081526004016114d59061387f565b60405180910390fd5b6000600360008360010154815260200190815260200160002090506001600281111561150d5761150c6129b4565b5b8160060160009054906101000a900460ff166002811115611531576115306129b4565b5b14611571576040517f08c379a000000000000000000000000000000000000000000000000000000000815260040161156890613906565b60405180910390fd5b60028160060160006101000a81548160ff02191690836002811115611599576115986129b4565b5b021790555060028260060160006101000a81548160ff021916908360058111156115c6576115c56129b4565b5b02179055503373ffffffffffffffffffffffffffffffffffffffff16857f84a477df8a28a4276ca6dee4458a06c3015f30c477d9c949ede4e13ff8a552b460405160405180910390a3847fdb118fd0b055eccbef25f18ed59dd3948e1c76d7875a4a77e4327a8fa2dc9a416002604051611640919061389f565b60405180910390a281600101547fc9ad6f316a0c29919c9b20c406f1baca1b93c196df6515c9e236a803e8a50c13600260405161167d91906132ba565b60405180910390a25050505050565b6060600660008373ffffffffffffffffffffffffffffffffffffffff1673ffffffffffffffffffffffffffffffffffffffff16815260200190815260200160002080548060200260200160405190810160405280929190818152602001828054801561171757602002820191906000526020600020905b815481526020019060010190808311611703575b50505050509050919050565b60008060008060008060008780600460008381526020019081526020016000206000015414611787576040517f08c379a000000000000000000000000000000000000000000000000000000000815260040161177e90613813565b60405180910390fd5b6000600460008b81526020019081526020016000209050806000015481600101548260020160009054906101000a900473ffffffffffffffffffffffffffffffffffffffff168360030154846004015485600501548660060160009054906101000a900460ff1698509850985098509850985098505050919395979092949650565b60008060009054906101000a900473ffffffffffffffffffffffffffffffffffffffff16905090565b6060600560008373ffffffffffffffffffffffffffffffffffffffff1673ffffffffffffffffffffffffffffffffffffffff1681526020019081526020016000208054806020026020016040519081016040528092919081815260200182805480156118bd57602002820191906000526020600020905b8154815260200190600101908083116118a9575b50505050509050919050565b8380600360008381526020019081526020016000206000015414611922576040517f08c379a0000000000000000000000000000000000000000000000000000000008152600401611919906131b7565b60405180910390fd5b843373ffffffffffffffffffffffffffffffffffffffff166003600083815260200190815260200160002060020160009054906101000a900473ffffffffffffffffffffffffffffffffffffffff1673ffffffffffffffffffffffffffffffffffffffff16146119c7576040517f08c379a00000000000000000000000000000000000000000000000000000000081526004016119be90613381565b60405180910390fd5b60006040518060a001604052808781526020014281526020018660038111156119f3576119f26129b4565b5b81526020013373ffffffffffffffffffffffffffffffffffffffff168152602001858152509050600760008881526020019081526020016000206000866003811115611a4257611a416129b4565b5b6003811115611a5457611a536129b4565b5b81526020019081526020016000208190806001815401808255809150506001900390600052602060002090600402016000909190919091506000820151816000019081611aa191906136b7565b506020820151816001015560408201518160020160006101000a81548160ff02191690836003811115611ad757611ad66129b4565b5b021790555060608201518160020160016101000a81548173ffffffffffffffffffffffffffffffffffffffff021916908373ffffffffffffffffffffffffffffffffffffffff1602179055506080820151816003019081611b3891906136b7565b5050503373ffffffffffffffffffffffffffffffffffffffff16856003811115611b6557611b646129b4565b5b887f0f86eb58761369745aca55e530dd2c529b3cfadd6c27dacd72e5001c6394182e89604051611b959190613926565b60405180910390a450505050505050565b8180600460008381526020019081526020016000206000015414611bff576040517f08c379a0000000000000000000000000000000000000000000000000000000008152600401611bf690613813565b60405180910390fd5b60046000848152602001908152602001600020600101543373ffffffffffffffffffffffffffffffffffffffff166003600083815260200190815260200160002060020160009054906101000a900473ffffffffffffffffffffffffffffffffffffffff1673ffffffffffffffffffffffffffffffffffffffff1614611cba576040517f08c379a0000000000000000000000000000000000000000000000000000000008152600401611cb190613381565b60405180910390fd5b600060046000868152602001908152602001600020905060026005811115611ce557611ce46129b4565b5b8160060160009054906101000a900460ff166005811115611d0957611d086129b4565b5b14611d49576040517f08c379a0000000000000000000000000000000000000000000000000000000008152600401611d4090613994565b60405180910390fd5b8060030154841115611d90576040517f08c379a0000000000000000000000000000000000000000000000000000000008152600401611d8790613a26565b60405180910390fd5b60006003600083600101548152602001908152602001600020905060008160060160006101000a81548160ff02191690836002811115611dd357611dd26129b4565b5b021790555081600301548503611e915760058260060160006101000a81548160ff02191690836005811115611e0b57611e0a6129b4565b5b0217905550816003015482600401819055508160020160009054906101000a900473ffffffffffffffffffffffffffffffffffffffff1673ffffffffffffffffffffffffffffffffffffffff166108fc83600301549081150290604051600060405180830381858888f19350505050158015611e8b573d6000803e3d6000fd5b5061209d565b600085118015611ea45750816003015485105b15611fdf5760048260060160006101000a81548160ff02191690836005811115611ed157611ed06129b4565b5b0217905550848260040181905550600360008360010154815260200190815260200160002060020160009054906101000a900473ffffffffffffffffffffffffffffffffffffffff1673ffffffffffffffffffffffffffffffffffffffff166108fc868460030154611f4391906134a8565b9081150290604051600060405180830381858888f19350505050158015611f6e573d6000803e3d6000fd5b508160020160009054906101000a900473ffffffffffffffffffffffffffffffffffffffff1673ffffffffffffffffffffffffffffffffffffffff166108fc869081150290604051600060405180830381858888f19350505050158015611fd9573d6000803e3d6000fd5b5061209c565b60038260060160006101000a81548160ff02191690836005811115612007576120066129b4565b5b021790555060008260040181905550600360008360010154815260200190815260200160002060020160009054906101000a900473ffffffffffffffffffffffffffffffffffffffff1673ffffffffffffffffffffffffffffffffffffffff166108fc83600301549081150290604051600060405180830381858888f1935050505015801561209a573d6000803e3d6000fd5b505b5b857ff1ec8c5f40b1ecbe135bf063eabb3d0787f27bef26b6dcf944914a01d2de0b9e8360060160009054906101000a900460ff16876040516120e0929190613a46565b60405180910390a2857fdb118fd0b055eccbef25f18ed59dd3948e1c76d7875a4a77e4327a8fa2dc9a418360060160009054906101000a900460ff16604051612129919061389f565b60405180910390a281600101547fc9ad6f316a0c29919c9b20c406f1baca1b93c196df6515c9e236a803e8a50c13600060405161216691906132ba565b60405180910390a2505050505050565b600060046000838152602001908152602001600020600101549050919050565b60015481565b600060036000838152602001908152602001600020600101549050919050565b60025481565b6121ca61263b565b600073ffffffffffffffffffffffffffffffffffffffff168173ffffffffffffffffffffffffffffffffffffffff160361223c5760006040517f1e4fbdf70000000000000000000000000000000000000000000000000000000081526004016122339190612e4a565b60405180910390fd5b612245816126c2565b50565b606081806003600083815260200190815260200160002060000154146122a3576040517f08c379a000000000000000000000000000000000000000000000000000000000815260040161229a906131b7565b60405180910390fd5b6000805b6004811015612328576007600086815260200190815260200160002060008260038111156122d8576122d76129b4565b5b60038111156122ea576122e96129b4565b5b60038111156122fc576122fb6129b4565b5b815260200190815260200160002080549050826123199190613a6f565b915080806001019150506122a7565b5060008167ffffffffffffffff81111561234557612344612aa4565b5b60405190808252806020026020018201604052801561237e57816020015b61236b6127ce565b8152602001906001900390816123635790505b5090506000805b600481101561262e5760006007600089815260200190815260200160002060008360038111156123b8576123b76129b4565b5b60038111156123ca576123c96129b4565b5b60038111156123dc576123db6129b4565b5b8152602001908152602001600020905060005b818054905081101561261f5781818154811061240e5761240d613479565b5b90600052602060002090600402016040518060a001604052908160008201805461243790613304565b80601f016020809104026020016040519081016040528092919081815260200182805461246390613304565b80156124b05780601f10612485576101008083540402835291602001916124b0565b820191906000526020600020905b81548152906001019060200180831161249357829003601f168201915b50505050508152602001600182015481526020016002820160009054906101000a900460ff1660038111156124e8576124e76129b4565b5b60038111156124fa576124f96129b4565b5b81526020016002820160019054906101000a900473ffffffffffffffffffffffffffffffffffffffff1673ffffffffffffffffffffffffffffffffffffffff1673ffffffffffffffffffffffffffffffffffffffff16815260200160038201805461256490613304565b80601f016020809104026020016040519081016040528092919081815260200182805461259090613304565b80156125dd5780601f106125b2576101008083540402835291602001916125dd565b820191906000526020600020905b8154815290600101906020018083116125c057829003601f168201915b5050505050815250508585815181106125f9576125f8613479565b5b6020026020010181905250838061260f90613272565b94505080806001019150506123ef565b50508080600101915050612385565b5081945050505050919050565b612643612786565b73ffffffffffffffffffffffffffffffffffffffff16612661611809565b73ffffffffffffffffffffffffffffffffffffffff16146126c057612684612786565b6040517f118cdaa70000000000000000000000000000000000000000000000000000000081526004016126b79190612e4a565b60405180910390fd5b565b60008060009054906101000a900473ffffffffffffffffffffffffffffffffffffffff169050816000806101000a81548173ffffffffffffffffffffffffffffffffffffffff021916908373ffffffffffffffffffffffffffffffffffffffff1602179055508173ffffffffffffffffffffffffffffffffffffffff168173ffffffffffffffffffffffffffffffffffffffff167f8be0079c531659141344cd1fd0a4f28419497f9722a3daafe3b4186f6b6457e060405160405180910390a35050565b600033905090565b50805461279a90613304565b6000825580601f106127ac57506127cb565b601f0160209004906000526020600020908101906127ca9190612825565b5b50565b6040518060a001604052806060815260200160008152602001600060038111156127fb576127fa6129b4565b5b8152602001600073ffffffffffffffffffffffffffffffffffffffff168152602001606081525090565b5b8082111561283e576000816000905550600101612826565b5090565b6000604051905090565b600080fd5b600080fd5b6000819050919050565b61286981612856565b811461287457600080fd5b50565b60008135905061288681612860565b92915050565b6000602082840312156128a2576128a161284c565b5b60006128b084828501612877565b91505092915050565b6128c281612856565b82525050565b60006020820190506128dd60008301846128b9565b92915050565b600073ffffffffffffffffffffffffffffffffffffffff82169050919050565b600061290e826128e3565b9050919050565b61291e81612903565b82525050565b600081519050919050565b600082825260208201905092915050565b60005b8381101561295e578082015181840152602081019050612943565b60008484015250505050565b6000601f19601f8301169050919050565b600061298682612924565b612990818561292f565b93506129a0818560208601612940565b6129a98161296a565b840191505092915050565b7f4e487b7100000000000000000000000000000000000000000000000000000000600052602160045260246000fd5b600381106129f4576129f36129b4565b5b50565b6000819050612a05826129e3565b919050565b6000612a15826129f7565b9050919050565b612a2581612a0a565b82525050565b600060c082019050612a4060008301896128b9565b612a4d6020830188612915565b8181036040830152612a5f818761297b565b90508181036060830152612a73818661297b565b9050612a8260808301856128b9565b612a8f60a0830184612a1c565b979650505050505050565b600080fd5b600080fd5b7f4e487b7100000000000000000000000000000000000000000000000000000000600052604160045260246000fd5b612adc8261296a565b810181811067ffffffffffffffff82111715612afb57612afa612aa4565b5b80604052505050565b6000612b0e612842565b9050612b1a8282612ad3565b919050565b600067ffffffffffffffff821115612b3a57612b39612aa4565b5b612b438261296a565b9050602081019050919050565b82818337600083830152505050565b6000612b72612b6d84612b1f565b612b04565b905082815260208101848484011115612b8e57612b8d612a9f565b5b612b99848285612b50565b509392505050565b600082601f830112612bb657612bb5612a9a565b5b8135612bc6848260208601612b5f565b91505092915050565b600080600060608486031215612be857612be761284c565b5b600084013567ffffffffffffffff811115612c0657612c05612851565b5b612c1286828701612ba1565b935050602084013567ffffffffffffffff811115612c3357612c32612851565b5b612c3f86828701612ba1565b9250506040612c5086828701612877565b9150509250925092565b612c6381612903565b8114612c6e57600080fd5b50565b600081359050612c8081612c5a565b92915050565b600060208284031215612c9c57612c9b61284c565b5b6000612caa84828501612c71565b91505092915050565b600081519050919050565b600082825260208201905092915050565b6000819050602082019050919050565b612ce881612856565b82525050565b6000612cfa8383612cdf565b60208301905092915050565b6000602082019050919050565b6000612d1e82612cb3565b612d288185612cbe565b9350612d3383612ccf565b8060005b83811015612d64578151612d4b8882612cee565b9750612d5683612d06565b925050600181019050612d37565b5085935050505092915050565b60006020820190508181036000830152612d8b8184612d13565b905092915050565b60068110612da457612da36129b4565b5b50565b6000819050612db582612d93565b919050565b6000612dc582612da7565b9050919050565b612dd581612dba565b82525050565b600060e082019050612df0600083018a6128b9565b612dfd60208301896128b9565b612e0a6040830188612915565b612e1760608301876128b9565b612e2460808301866128b9565b612e3160a08301856128b9565b612e3e60c0830184612dcc565b98975050505050505050565b6000602082019050612e5f6000830184612915565b92915050565b60048110612e7257600080fd5b50565b600081359050612e8481612e65565b92915050565b60008060008060808587031215612ea457612ea361284c565b5b6000612eb287828801612877565b945050602085013567ffffffffffffffff811115612ed357612ed2612851565b5b612edf87828801612ba1565b9350506040612ef087828801612e75565b925050606085013567ffffffffffffffff811115612f1157612f10612851565b5b612f1d87828801612ba1565b91505092959194509250565b60008060408385031215612f4057612f3f61284c565b5b6000612f4e85828601612877565b9250506020612f5f85828601612877565b9150509250929050565b600081519050919050565b600082825260208201905092915050565b6000819050602082019050919050565b600082825260208201905092915050565b6000612fb182612924565b612fbb8185612f95565b9350612fcb818560208601612940565b612fd48161296a565b840191505092915050565b60048110612ff057612fef6129b4565b5b50565b600081905061300182612fdf565b919050565b600061301182612ff3565b9050919050565b61302181613006565b82525050565b61303081612903565b82525050565b600060a08301600083015184820360008601526130538282612fa6565b91505060208301516130686020860182612cdf565b50604083015161307b6040860182613018565b50606083015161308e6060860182613027565b50608083015184820360808601526130a68282612fa6565b9150508091505092915050565b60006130bf8383613036565b905092915050565b6000602082019050919050565b60006130df82612f69565b6130e98185612f74565b9350836020820285016130fb85612f85565b8060005b85811015613137578484038952815161311885826130b3565b9450613123836130c7565b925060208a019950506001810190506130ff565b50829750879550505050505092915050565b6000602082019050818103600083015261316381846130d4565b905092915050565b7f50726f706572747920646f6573206e6f74206578697374000000000000000000600082015250565b60006131a160178361292f565b91506131ac8261316b565b602082019050919050565b600060208201905081810360008301526131d081613194565b9050919050565b7f496e636f7272656374206465706f73697420616d6f756e740000000000000000600082015250565b600061320d60188361292f565b9150613218826131d7565b602082019050919050565b6000602082019050818103600083015261323c81613200565b9050919050565b7f4e487b7100000000000000000000000000000000000000000000000000000000600052601160045260246000fd5b600061327d82612856565b91507fffffffffffffffffffffffffffffffffffffffffffffffffffffffffffffffff82036132af576132ae613243565b5b600182019050919050565b60006020820190506132cf6000830184612a1c565b92915050565b7f4e487b7100000000000000000000000000000000000000000000000000000000600052602260045260246000fd5b6000600282049050600182168061331c57607f821691505b60208210810361332f5761332e6132d5565b5b50919050565b7f4e6f7420746865206c616e646c6f726400000000000000000000000000000000600082015250565b600061336b60108361292f565b915061337682613335565b602082019050919050565b6000602082019050818103600083015261339a8161335e565b9050919050565b7f50726f70657274792069732072656e7465640000000000000000000000000000600082015250565b60006133d760128361292f565b91506133e2826133a1565b602082019050919050565b60006020820190508181036000830152613406816133ca565b9050919050565b7f50726f7065727479206973206469737075746564000000000000000000000000600082015250565b600061344360148361292f565b915061344e8261340d565b602082019050919050565b6000602082019050818103600083015261347281613436565b9050919050565b7f4e487b7100000000000000000000000000000000000000000000000000000000600052603260045260246000fd5b60006134b382612856565b91506134be83612856565b92508282039050818111156134d6576134d5613243565b5b92915050565b7f4e487b7100000000000000000000000000000000000000000000000000000000600052603160045260246000fd5b60008190508160005260206000209050919050565b60006020601f8301049050919050565b600082821b905092915050565b60006008830261356d7fffffffffffffffffffffffffffffffffffffffffffffffffffffffffffffffff82613530565b6135778683613530565b95508019841693508086168417925050509392505050565b6000819050919050565b60006135b46135af6135aa84612856565b61358f565b612856565b9050919050565b6000819050919050565b6135ce83613599565b6135e26135da826135bb565b84845461353d565b825550505050565b600090565b6135f76135ea565b6136028184846135c5565b505050565b5b818110156136265761361b6000826135ef565b600181019050613608565b5050565b601f82111561366b5761363c8161350b565b61364584613520565b81016020851015613654578190505b61366861366085613520565b830182613607565b50505b505050565b600082821c905092915050565b600061368e60001984600802613670565b1980831691505092915050565b60006136a7838361367d565b9150826002028217905092915050565b6136c082612924565b67ffffffffffffffff8111156136d9576136d8612aa4565b5b6136e38254613304565b6136ee82828561362a565b600060209050601f831160018114613721576000841561370f578287015190505b613719858261369b565b865550613781565b601f19841661372f8661350b565b60005b8281101561375757848901518255600182019150602085019450602081019050613732565b868310156137745784890151613770601f89168261367d565b8355505b6001600288020188555050505b505050505050565b600060608201905081810360008301526137a3818661297b565b90506137b260208301856128b9565b6137bf6040830184612a1c565b949350505050565b7f4465706f73697420646f6573206e6f7420657869737400000000000000000000600082015250565b60006137fd60168361292f565b9150613808826137c7565b602082019050919050565b6000602082019050818103600083015261382c816137f0565b9050919050565b7f4465706f736974206e6f74206163746976650000000000000000000000000000600082015250565b600061386960128361292f565b915061387482613833565b602082019050919050565b600060208201905081810360008301526138988161385c565b9050919050565b60006020820190506138b46000830184612dcc565b92915050565b7f50726f7065727479206e6f742072656e74656400000000000000000000000000600082015250565b60006138f060138361292f565b91506138fb826138ba565b602082019050919050565b6000602082019050818103600083015261391f816138e3565b9050919050565b60006020820190508181036000830152613940818461297b565b905092915050565b7f4465706f736974206e6f74206469737075746564000000000000000000000000600082015250565b600061397e60148361292f565b915061398982613948565b602082019050919050565b600060208201905081810360008301526139ad81613971565b9050919050565b7f54656e616e74206465706f73697420616d6f756e74206973206772656174657260008201527f207468616e20746865206465706f73697420616d6f756e740000000000000000602082015250565b6000613a1060388361292f565b9150613a1b826139b4565b604082019050919050565b60006020820190508181036000830152613a3f81613a03565b9050919050565b6000604082019050613a5b6000830185612dcc565b613a6860208301846128b9565b9392505050565b6000613a7a82612856565b9150613a8583612856565b9250828201905080821115613a9d57613a9c613243565b5b9291505056fea2646970667358221220d07667e29391d171a8a6b991942522abfd02ce0ca90552df07d1b970794da6ec64736f6c634300081c0033",
  "linkReferences": {},
  "deployedLinkReferences": {}
}